{
  "_format": "hh-sol-artifact-1",
  "contractName": "FactoryNFT",
  "sourceName": "contracts/factoryNFT.sol",
  "abi": [
    {
      "inputs": [],
      "stateMutability": "nonpayable",
      "type": "constructor"
    },
    {
      "anonymous": false,
      "inputs": [
        {
          "indexed": true,
          "internalType": "address",
          "name": "owner",
          "type": "address"
        },
        {
          "indexed": true,
          "internalType": "address",
          "name": "approved",
          "type": "address"
        },
        {
          "indexed": true,
          "internalType": "uint256",
          "name": "tokenId",
          "type": "uint256"
        }
      ],
      "name": "Approval",
      "type": "event"
    },
    {
      "anonymous": false,
      "inputs": [
        {
          "indexed": true,
          "internalType": "address",
          "name": "owner",
          "type": "address"
        },
        {
          "indexed": true,
          "internalType": "address",
          "name": "operator",
          "type": "address"
        },
        {
          "indexed": false,
          "internalType": "bool",
          "name": "approved",
          "type": "bool"
        }
      ],
      "name": "ApprovalForAll",
      "type": "event"
    },
    {
      "anonymous": false,
      "inputs": [
        {
          "indexed": true,
          "internalType": "address",
          "name": "from",
          "type": "address"
        },
        {
          "indexed": true,
          "internalType": "address",
          "name": "to",
          "type": "address"
        },
        {
          "indexed": true,
          "internalType": "uint256",
          "name": "tokenId",
          "type": "uint256"
        }
      ],
      "name": "Transfer",
      "type": "event"
    },
    {
      "inputs": [
        {
          "internalType": "address",
          "name": "to",
          "type": "address"
        },
        {
          "internalType": "uint256",
          "name": "tokenId",
          "type": "uint256"
        }
      ],
      "name": "approve",
      "outputs": [],
      "stateMutability": "nonpayable",
      "type": "function"
    },
    {
      "inputs": [
        {
          "internalType": "address",
          "name": "owner",
          "type": "address"
        }
      ],
      "name": "balanceOf",
      "outputs": [
        {
          "internalType": "uint256",
          "name": "",
          "type": "uint256"
        }
      ],
      "stateMutability": "view",
      "type": "function"
    },
    {
      "inputs": [],
      "name": "currentTokenId",
      "outputs": [
        {
          "internalType": "uint256",
          "name": "",
          "type": "uint256"
        }
      ],
      "stateMutability": "view",
      "type": "function"
    },
    {
      "inputs": [
        {
          "internalType": "uint256",
          "name": "tokenId",
          "type": "uint256"
        }
      ],
      "name": "getApproved",
      "outputs": [
        {
          "internalType": "address",
          "name": "",
          "type": "address"
        }
      ],
      "stateMutability": "view",
      "type": "function"
    },
    {
      "inputs": [
        {
          "internalType": "address",
          "name": "owner",
          "type": "address"
        },
        {
          "internalType": "address",
          "name": "operator",
          "type": "address"
        }
      ],
      "name": "isApprovedForAll",
      "outputs": [
        {
          "internalType": "bool",
          "name": "",
          "type": "bool"
        }
      ],
      "stateMutability": "view",
      "type": "function"
    },
    {
      "inputs": [
        {
          "internalType": "string",
          "name": "tokenURI",
          "type": "string"
        }
      ],
      "name": "mintNFT",
      "outputs": [
        {
          "internalType": "uint256",
          "name": "",
          "type": "uint256"
        }
      ],
      "stateMutability": "nonpayable",
      "type": "function"
    },
    {
      "inputs": [],
      "name": "name",
      "outputs": [
        {
          "internalType": "string",
          "name": "",
          "type": "string"
        }
      ],
      "stateMutability": "view",
      "type": "function"
    },
    {
      "inputs": [
        {
          "internalType": "uint256",
          "name": "tokenId",
          "type": "uint256"
        }
      ],
      "name": "ownerOf",
      "outputs": [
        {
          "internalType": "address",
          "name": "",
          "type": "address"
        }
      ],
      "stateMutability": "view",
      "type": "function"
    },
    {
      "inputs": [
        {
          "internalType": "address",
          "name": "from",
          "type": "address"
        },
        {
          "internalType": "address",
          "name": "to",
          "type": "address"
        },
        {
          "internalType": "uint256",
          "name": "tokenId",
          "type": "uint256"
        }
      ],
      "name": "safeTransferFrom",
      "outputs": [],
      "stateMutability": "nonpayable",
      "type": "function"
    },
    {
      "inputs": [
        {
          "internalType": "address",
          "name": "from",
          "type": "address"
        },
        {
          "internalType": "address",
          "name": "to",
          "type": "address"
        },
        {
          "internalType": "uint256",
          "name": "tokenId",
          "type": "uint256"
        },
        {
          "internalType": "bytes",
          "name": "_data",
          "type": "bytes"
        }
      ],
      "name": "safeTransferFrom",
      "outputs": [],
      "stateMutability": "nonpayable",
      "type": "function"
    },
    {
      "inputs": [
        {
          "internalType": "address",
          "name": "operator",
          "type": "address"
        },
        {
          "internalType": "bool",
          "name": "approved",
          "type": "bool"
        }
      ],
      "name": "setApprovalForAll",
      "outputs": [],
      "stateMutability": "nonpayable",
      "type": "function"
    },
    {
      "inputs": [
        {
          "internalType": "bytes4",
          "name": "interfaceId",
          "type": "bytes4"
        }
      ],
      "name": "supportsInterface",
      "outputs": [
        {
          "internalType": "bool",
          "name": "",
          "type": "bool"
        }
      ],
      "stateMutability": "view",
      "type": "function"
    },
    {
      "inputs": [],
      "name": "symbol",
      "outputs": [
        {
          "internalType": "string",
          "name": "",
          "type": "string"
        }
      ],
      "stateMutability": "view",
      "type": "function"
    },
    {
      "inputs": [
        {
          "internalType": "uint256",
          "name": "tokenId",
          "type": "uint256"
        }
      ],
      "name": "tokenURI",
      "outputs": [
        {
          "internalType": "string",
          "name": "",
          "type": "string"
        }
      ],
      "stateMutability": "view",
      "type": "function"
    },
    {
      "inputs": [
        {
          "internalType": "address",
          "name": "from",
          "type": "address"
        },
        {
          "internalType": "address",
          "name": "to",
          "type": "address"
        },
        {
          "internalType": "uint256",
          "name": "tokenId",
          "type": "uint256"
        }
      ],
      "name": "transferFrom",
      "outputs": [],
      "stateMutability": "nonpayable",
      "type": "function"
    }
  ],
  "bytecode": "0x60806040523480156200001157600080fd5b506040518060400160405280601581526020017f53686964656e43727573742053696e67756c61727300000000000000000000008152506040518060400160405280600381526020017f5343530000000000000000000000000000000000000000000000000000000000815250816000908051906020019062000096929190620000b8565b508060019080519060200190620000af929190620000b8565b505050620001cd565b828054620000c69062000168565b90600052602060002090601f016020900481019282620000ea576000855562000136565b82601f106200010557805160ff191683800117855562000136565b8280016001018555821562000136579182015b828111156200013557825182559160200191906001019062000118565b5b50905062000145919062000149565b5090565b5b80821115620001645760008160009055506001016200014a565b5090565b600060028204905060018216806200018157607f821691505b602082108114156200019857620001976200019e565b5b50919050565b7f4e487b7100000000000000000000000000000000000000000000000000000000600052602260045260246000fd5b612b9180620001dd6000396000f3fe608060405234801561001057600080fd5b50600436106100f45760003560e01c80636352211e11610097578063b88d4fde11610066578063b88d4fde14610283578063c87b56dd1461029f578063e985e9c5146102cf578063fb37e883146102ff576100f4565b80636352211e146101e957806370a082311461021957806395d89b4114610249578063a22cb46514610267576100f4565b8063081812fc116100d3578063081812fc14610165578063095ea7b31461019557806323b872dd146101b157806342842e0e146101cd576100f4565b80629a9b7b146100f957806301ffc9a71461011757806306fdde0314610147575b600080fd5b61010161032f565b60405161010e9190612281565b60405180910390f35b610131600480360381019061012c9190611bfd565b610340565b60405161013e9190612044565b60405180910390f35b61014f610422565b60405161015c919061205f565b60405180910390f35b61017f600480360381019061017a9190611c90565b6104b4565b60405161018c9190611fdd565b60405180910390f35b6101af60048036038101906101aa9190611bc1565b610539565b005b6101cb60048036038101906101c69190611abb565b610651565b005b6101e760048036038101906101e29190611abb565b6106b1565b005b61020360048036038101906101fe9190611c90565b6106d1565b6040516102109190611fdd565b60405180910390f35b610233600480360381019061022e9190611a56565b610783565b6040516102409190612281565b60405180910390f35b61025161083b565b60405161025e919061205f565b60405180910390f35b610281600480360381019061027c9190611b85565b6108cd565b005b61029d60048036038101906102989190611b0a565b610a4e565b005b6102b960048036038101906102b49190611c90565b610ab0565b6040516102c6919061205f565b60405180910390f35b6102e960048036038101906102e49190611a7f565b610c02565b6040516102f69190612044565b60405180910390f35b61031960048036038101906103149190611c4f565b610c96565b6040516103269190612281565b60405180910390f35b600061033b6007610ccd565b905090565b60007f80ac58cd000000000000000000000000000000000000000000000000000000007bffffffffffffffffffffffffffffffffffffffffffffffffffffffff1916827bffffffffffffffffffffffffffffffffffffffffffffffffffffffff1916148061040b57507f5b5e139f000000000000000000000000000000000000000000000000000000007bffffffffffffffffffffffffffffffffffffffffffffffffffffffff1916827bffffffffffffffffffffffffffffffffffffffffffffffffffffffff1916145b8061041b575061041a82610cdb565b5b9050919050565b606060008054610431906124d7565b80601f016020809104026020016040519081016040528092919081815260200182805461045d906124d7565b80156104aa5780601f1061047f576101008083540402835291602001916104aa565b820191906000526020600020905b81548152906001019060200180831161048d57829003601f168201915b5050505050905090565b60006104bf82610d45565b6104fe576040517f08c379a00000000000000000000000000000000000000000000000000000000081526004016104f5906121e1565b60405180910390fd5b6004600083815260200190815260200160002060009054906101000a900473ffffffffffffffffffffffffffffffffffffffff169050919050565b6000610544826106d1565b90508073ffffffffffffffffffffffffffffffffffffffff168373ffffffffffffffffffffffffffffffffffffffff1614156105b5576040517f08c379a00000000000000000000000000000000000000000000000000000000081526004016105ac90612241565b60405180910390fd5b8073ffffffffffffffffffffffffffffffffffffffff166105d4610db1565b73ffffffffffffffffffffffffffffffffffffffff1614806106035750610602816105fd610db1565b610c02565b5b610642576040517f08c379a000000000000000000000000000000000000000000000000000000000815260040161063990612121565b60405180910390fd5b61064c8383610db9565b505050565b61066261065c610db1565b82610e72565b6106a1576040517f08c379a000000000000000000000000000000000000000000000000000000000815260040161069890612261565b60405180910390fd5b6106ac838383610f50565b505050565b6106cc83838360405180602001604052806000815250610a4e565b505050565b6000806002600084815260200190815260200160002060009054906101000a900473ffffffffffffffffffffffffffffffffffffffff169050600073ffffffffffffffffffffffffffffffffffffffff168173ffffffffffffffffffffffffffffffffffffffff16141561077a576040517f08c379a000000000000000000000000000000000000000000000000000000000815260040161077190612161565b60405180910390fd5b80915050919050565b60008073ffffffffffffffffffffffffffffffffffffffff168273ffffffffffffffffffffffffffffffffffffffff1614156107f4576040517f08c379a00000000000000000000000000000000000000000000000000000000081526004016107eb90612141565b60405180910390fd5b600360008373ffffffffffffffffffffffffffffffffffffffff1673ffffffffffffffffffffffffffffffffffffffff168152602001908152602001600020549050919050565b60606001805461084a906124d7565b80601f0160208091040260200160405190810160405280929190818152602001828054610876906124d7565b80156108c35780601f10610898576101008083540402835291602001916108c3565b820191906000526020600020905b8154815290600101906020018083116108a657829003601f168201915b5050505050905090565b6108d5610db1565b73ffffffffffffffffffffffffffffffffffffffff168273ffffffffffffffffffffffffffffffffffffffff161415610943576040517f08c379a000000000000000000000000000000000000000000000000000000000815260040161093a906120e1565b60405180910390fd5b8060056000610950610db1565b73ffffffffffffffffffffffffffffffffffffffff1673ffffffffffffffffffffffffffffffffffffffff16815260200190815260200160002060008473ffffffffffffffffffffffffffffffffffffffff1673ffffffffffffffffffffffffffffffffffffffff16815260200190815260200160002060006101000a81548160ff0219169083151502179055508173ffffffffffffffffffffffffffffffffffffffff166109fd610db1565b73ffffffffffffffffffffffffffffffffffffffff167f17307eab39ab6107e8899845ad3d59bd9653f200f220920489ca2b5937696c3183604051610a429190612044565b60405180910390a35050565b610a5f610a59610db1565b83610e72565b610a9e576040517f08c379a0000000000000000000000000000000000000000000000000000000008152600401610a9590612261565b60405180910390fd5b610aaa848484846111ac565b50505050565b6060610abb82610d45565b610afa576040517f08c379a0000000000000000000000000000000000000000000000000000000008152600401610af1906121c1565b60405180910390fd5b6000600660008481526020019081526020016000208054610b1a906124d7565b80601f0160208091040260200160405190810160405280929190818152602001828054610b46906124d7565b8015610b935780601f10610b6857610100808354040283529160200191610b93565b820191906000526020600020905b815481529060010190602001808311610b7657829003601f168201915b505050505090506000610ba4611208565b9050600081511415610bba578192505050610bfd565b600082511115610bef578082604051602001610bd7929190611fb9565b60405160208183030381529060405292505050610bfd565b610bf88461121f565b925050505b919050565b6000600560008473ffffffffffffffffffffffffffffffffffffffff1673ffffffffffffffffffffffffffffffffffffffff16815260200190815260200160002060008373ffffffffffffffffffffffffffffffffffffffff1673ffffffffffffffffffffffffffffffffffffffff16815260200190815260200160002060009054906101000a900460ff16905092915050565b6000610ca260076112c6565b6000610cae6007610ccd565b9050610cba33826112dc565b610cc481846114aa565b80915050919050565b600081600001549050919050565b60007f01ffc9a7000000000000000000000000000000000000000000000000000000007bffffffffffffffffffffffffffffffffffffffffffffffffffffffff1916827bffffffffffffffffffffffffffffffffffffffffffffffffffffffff1916149050919050565b60008073ffffffffffffffffffffffffffffffffffffffff166002600084815260200190815260200160002060009054906101000a900473ffffffffffffffffffffffffffffffffffffffff1673ffffffffffffffffffffffffffffffffffffffff1614159050919050565b600033905090565b816004600083815260200190815260200160002060006101000a81548173ffffffffffffffffffffffffffffffffffffffff021916908373ffffffffffffffffffffffffffffffffffffffff160217905550808273ffffffffffffffffffffffffffffffffffffffff16610e2c836106d1565b73ffffffffffffffffffffffffffffffffffffffff167f8c5be1e5ebec7d5bd14f71427d1e84f3dd0314c0f7b2291e5b200ac8c7c3b92560405160405180910390a45050565b6000610e7d82610d45565b610ebc576040517f08c379a0000000000000000000000000000000000000000000000000000000008152600401610eb390612101565b60405180910390fd5b6000610ec7836106d1565b90508073ffffffffffffffffffffffffffffffffffffffff168473ffffffffffffffffffffffffffffffffffffffff161480610f3657508373ffffffffffffffffffffffffffffffffffffffff16610f1e846104b4565b73ffffffffffffffffffffffffffffffffffffffff16145b80610f475750610f468185610c02565b5b91505092915050565b8273ffffffffffffffffffffffffffffffffffffffff16610f70826106d1565b73ffffffffffffffffffffffffffffffffffffffff1614610fc6576040517f08c379a0000000000000000000000000000000000000000000000000000000008152600401610fbd90612201565b60405180910390fd5b600073ffffffffffffffffffffffffffffffffffffffff168273ffffffffffffffffffffffffffffffffffffffff161415611036576040517f08c379a000000000000000000000000000000000000000000000000000000000815260040161102d906120c1565b60405180910390fd5b61104183838361151e565b61104c600082610db9565b6001600360008573ffffffffffffffffffffffffffffffffffffffff1673ffffffffffffffffffffffffffffffffffffffff168152602001908152602001600020600082825461109c91906123ed565b925050819055506001600360008473ffffffffffffffffffffffffffffffffffffffff1673ffffffffffffffffffffffffffffffffffffffff16815260200190815260200160002060008282546110f39190612366565b92505081905550816002600083815260200190815260200160002060006101000a81548173ffffffffffffffffffffffffffffffffffffffff021916908373ffffffffffffffffffffffffffffffffffffffff160217905550808273ffffffffffffffffffffffffffffffffffffffff168473ffffffffffffffffffffffffffffffffffffffff167fddf252ad1be2c89b69c2b068fc378daa952ba7f163c4a11628f55a4df523b3ef60405160405180910390a4505050565b6111b7848484610f50565b6111c384848484611523565b611202576040517f08c379a00000000000000000000000000000000000000000000000000000000081526004016111f990612081565b60405180910390fd5b50505050565b606060405180602001604052806000815250905090565b606061122a82610d45565b611269576040517f08c379a000000000000000000000000000000000000000000000000000000000815260040161126090612221565b60405180910390fd5b6000611273611208565b9050600081511161129357604051806020016040528060008152506112be565b8061129d846116ba565b6040516020016112ae929190611fb9565b6040516020818303038152906040525b915050919050565b6001816000016000828254019250508190555050565b600073ffffffffffffffffffffffffffffffffffffffff168273ffffffffffffffffffffffffffffffffffffffff16141561134c576040517f08c379a0000000000000000000000000000000000000000000000000000000008152600401611343906121a1565b60405180910390fd5b61135581610d45565b15611395576040517f08c379a000000000000000000000000000000000000000000000000000000000815260040161138c906120a1565b60405180910390fd5b6113a16000838361151e565b6001600360008473ffffffffffffffffffffffffffffffffffffffff1673ffffffffffffffffffffffffffffffffffffffff16815260200190815260200160002060008282546113f19190612366565b92505081905550816002600083815260200190815260200160002060006101000a81548173ffffffffffffffffffffffffffffffffffffffff021916908373ffffffffffffffffffffffffffffffffffffffff160217905550808273ffffffffffffffffffffffffffffffffffffffff16600073ffffffffffffffffffffffffffffffffffffffff167fddf252ad1be2c89b69c2b068fc378daa952ba7f163c4a11628f55a4df523b3ef60405160405180910390a45050565b6114b382610d45565b6114f2576040517f08c379a00000000000000000000000000000000000000000000000000000000081526004016114e990612181565b60405180910390fd5b8060066000848152602001908152602001600020908051906020019061151992919061187a565b505050565b505050565b60006115448473ffffffffffffffffffffffffffffffffffffffff16611867565b156116ad578373ffffffffffffffffffffffffffffffffffffffff1663150b7a0261156d610db1565b8786866040518563ffffffff1660e01b815260040161158f9493929190611ff8565b602060405180830381600087803b1580156115a957600080fd5b505af19250505080156115da57506040513d601f19601f820116820180604052508101906115d79190611c26565b60015b61165d573d806000811461160a576040519150601f19603f3d011682016040523d82523d6000602084013e61160f565b606091505b50600081511415611655576040517f08c379a000000000000000000000000000000000000000000000000000000000815260040161164c90612081565b60405180910390fd5b805181602001fd5b63150b7a0260e01b7bffffffffffffffffffffffffffffffffffffffffffffffffffffffff1916817bffffffffffffffffffffffffffffffffffffffffffffffffffffffff1916149150506116b2565b600190505b949350505050565b60606000821415611702576040518060400160405280600181526020017f30000000000000000000000000000000000000000000000000000000000000008152509050611862565b600082905060005b6000821461173457808061171d9061253a565b915050600a8261172d91906123bc565b915061170a565b60008167ffffffffffffffff811115611776577f4e487b7100000000000000000000000000000000000000000000000000000000600052604160045260246000fd5b6040519080825280601f01601f1916602001820160405280156117a85781602001600182028036833780820191505090505b5090505b6000851461185b576001826117c191906123ed565b9150600a856117d09190612583565b60306117dc9190612366565b60f81b818381518110611818577f4e487b7100000000000000000000000000000000000000000000000000000000600052603260045260246000fd5b60200101907effffffffffffffffffffffffffffffffffffffffffffffffffffffffffffff1916908160001a905350600a8561185491906123bc565b94506117ac565b8093505050505b919050565b600080823b905060008111915050919050565b828054611886906124d7565b90600052602060002090601f0160209004810192826118a857600085556118ef565b82601f106118c157805160ff19168380011785556118ef565b828001600101855582156118ef579182015b828111156118ee5782518255916020019190600101906118d3565b5b5090506118fc9190611900565b5090565b5b80821115611919576000816000905550600101611901565b5090565b600061193061192b846122c1565b61229c565b90508281526020810184848401111561194857600080fd5b611953848285612495565b509392505050565b600061196e611969846122f2565b61229c565b90508281526020810184848401111561198657600080fd5b611991848285612495565b509392505050565b6000813590506119a881612aff565b92915050565b6000813590506119bd81612b16565b92915050565b6000813590506119d281612b2d565b92915050565b6000815190506119e781612b2d565b92915050565b600082601f8301126119fe57600080fd5b8135611a0e84826020860161191d565b91505092915050565b600082601f830112611a2857600080fd5b8135611a3884826020860161195b565b91505092915050565b600081359050611a5081612b44565b92915050565b600060208284031215611a6857600080fd5b6000611a7684828501611999565b91505092915050565b60008060408385031215611a9257600080fd5b6000611aa085828601611999565b9250506020611ab185828601611999565b9150509250929050565b600080600060608486031215611ad057600080fd5b6000611ade86828701611999565b9350506020611aef86828701611999565b9250506040611b0086828701611a41565b9150509250925092565b60008060008060808587031215611b2057600080fd5b6000611b2e87828801611999565b9450506020611b3f87828801611999565b9350506040611b5087828801611a41565b925050606085013567ffffffffffffffff811115611b6d57600080fd5b611b79878288016119ed565b91505092959194509250565b60008060408385031215611b9857600080fd5b6000611ba685828601611999565b9250506020611bb7858286016119ae565b9150509250929050565b60008060408385031215611bd457600080fd5b6000611be285828601611999565b9250506020611bf385828601611a41565b9150509250929050565b600060208284031215611c0f57600080fd5b6000611c1d848285016119c3565b91505092915050565b600060208284031215611c3857600080fd5b6000611c46848285016119d8565b91505092915050565b600060208284031215611c6157600080fd5b600082013567ffffffffffffffff811115611c7b57600080fd5b611c8784828501611a17565b91505092915050565b600060208284031215611ca257600080fd5b6000611cb084828501611a41565b91505092915050565b611cc281612421565b82525050565b611cd181612433565b82525050565b6000611ce282612323565b611cec8185612339565b9350611cfc8185602086016124a4565b611d0581612670565b840191505092915050565b6000611d1b8261232e565b611d25818561234a565b9350611d358185602086016124a4565b611d3e81612670565b840191505092915050565b6000611d548261232e565b611d5e818561235b565b9350611d6e8185602086016124a4565b80840191505092915050565b6000611d8760328361234a565b9150611d9282612681565b604082019050919050565b6000611daa601c8361234a565b9150611db5826126d0565b602082019050919050565b6000611dcd60248361234a565b9150611dd8826126f9565b604082019050919050565b6000611df060198361234a565b9150611dfb82612748565b602082019050919050565b6000611e13602c8361234a565b9150611e1e82612771565b604082019050919050565b6000611e3660388361234a565b9150611e41826127c0565b604082019050919050565b6000611e59602a8361234a565b9150611e648261280f565b604082019050919050565b6000611e7c60298361234a565b9150611e878261285e565b604082019050919050565b6000611e9f602e8361234a565b9150611eaa826128ad565b604082019050919050565b6000611ec260208361234a565b9150611ecd826128fc565b602082019050919050565b6000611ee560318361234a565b9150611ef082612925565b604082019050919050565b6000611f08602c8361234a565b9150611f1382612974565b604082019050919050565b6000611f2b60298361234a565b9150611f36826129c3565b604082019050919050565b6000611f4e602f8361234a565b9150611f5982612a12565b604082019050919050565b6000611f7160218361234a565b9150611f7c82612a61565b604082019050919050565b6000611f9460318361234a565b9150611f9f82612ab0565b604082019050919050565b611fb38161248b565b82525050565b6000611fc58285611d49565b9150611fd18284611d49565b91508190509392505050565b6000602082019050611ff26000830184611cb9565b92915050565b600060808201905061200d6000830187611cb9565b61201a6020830186611cb9565b6120276040830185611faa565b81810360608301526120398184611cd7565b905095945050505050565b60006020820190506120596000830184611cc8565b92915050565b600060208201905081810360008301526120798184611d10565b905092915050565b6000602082019050818103600083015261209a81611d7a565b9050919050565b600060208201905081810360008301526120ba81611d9d565b9050919050565b600060208201905081810360008301526120da81611dc0565b9050919050565b600060208201905081810360008301526120fa81611de3565b9050919050565b6000602082019050818103600083015261211a81611e06565b9050919050565b6000602082019050818103600083015261213a81611e29565b9050919050565b6000602082019050818103600083015261215a81611e4c565b9050919050565b6000602082019050818103600083015261217a81611e6f565b9050919050565b6000602082019050818103600083015261219a81611e92565b9050919050565b600060208201905081810360008301526121ba81611eb5565b9050919050565b600060208201905081810360008301526121da81611ed8565b9050919050565b600060208201905081810360008301526121fa81611efb565b9050919050565b6000602082019050818103600083015261221a81611f1e565b9050919050565b6000602082019050818103600083015261223a81611f41565b9050919050565b6000602082019050818103600083015261225a81611f64565b9050919050565b6000602082019050818103600083015261227a81611f87565b9050919050565b60006020820190506122966000830184611faa565b92915050565b60006122a66122b7565b90506122b28282612509565b919050565b6000604051905090565b600067ffffffffffffffff8211156122dc576122db612641565b5b6122e582612670565b9050602081019050919050565b600067ffffffffffffffff82111561230d5761230c612641565b5b61231682612670565b9050602081019050919050565b600081519050919050565b600081519050919050565b600082825260208201905092915050565b600082825260208201905092915050565b600081905092915050565b60006123718261248b565b915061237c8361248b565b9250827fffffffffffffffffffffffffffffffffffffffffffffffffffffffffffffffff038211156123b1576123b06125b4565b5b828201905092915050565b60006123c78261248b565b91506123d28361248b565b9250826123e2576123e16125e3565b5b828204905092915050565b60006123f88261248b565b91506124038361248b565b925082821015612416576124156125b4565b5b828203905092915050565b600061242c8261246b565b9050919050565b60008115159050919050565b60007fffffffff0000000000000000000000000000000000000000000000000000000082169050919050565b600073ffffffffffffffffffffffffffffffffffffffff82169050919050565b6000819050919050565b82818337600083830152505050565b60005b838110156124c25780820151818401526020810190506124a7565b838111156124d1576000848401525b50505050565b600060028204905060018216806124ef57607f821691505b6020821081141561250357612502612612565b5b50919050565b61251282612670565b810181811067ffffffffffffffff8211171561253157612530612641565b5b80604052505050565b60006125458261248b565b91507fffffffffffffffffffffffffffffffffffffffffffffffffffffffffffffffff821415612578576125776125b4565b5b600182019050919050565b600061258e8261248b565b91506125998361248b565b9250826125a9576125a86125e3565b5b828206905092915050565b7f4e487b7100000000000000000000000000000000000000000000000000000000600052601160045260246000fd5b7f4e487b7100000000000000000000000000000000000000000000000000000000600052601260045260246000fd5b7f4e487b7100000000000000000000000000000000000000000000000000000000600052602260045260246000fd5b7f4e487b7100000000000000000000000000000000000000000000000000000000600052604160045260246000fd5b6000601f19601f8301169050919050565b7f4552433732313a207472616e7366657220746f206e6f6e20455243373231526560008201527f63656976657220696d706c656d656e7465720000000000000000000000000000602082015250565b7f4552433732313a20746f6b656e20616c7265616479206d696e74656400000000600082015250565b7f4552433732313a207472616e7366657220746f20746865207a65726f2061646460008201527f7265737300000000000000000000000000000000000000000000000000000000602082015250565b7f4552433732313a20617070726f766520746f2063616c6c657200000000000000600082015250565b7f4552433732313a206f70657261746f7220717565727920666f72206e6f6e657860008201527f697374656e7420746f6b656e0000000000000000000000000000000000000000602082015250565b7f4552433732313a20617070726f76652063616c6c6572206973206e6f74206f7760008201527f6e6572206e6f7220617070726f76656420666f7220616c6c0000000000000000602082015250565b7f4552433732313a2062616c616e636520717565727920666f7220746865207a6560008201527f726f206164647265737300000000000000000000000000000000000000000000602082015250565b7f4552433732313a206f776e657220717565727920666f72206e6f6e657869737460008201527f656e7420746f6b656e0000000000000000000000000000000000000000000000602082015250565b7f45524337323155524953746f726167653a2055524920736574206f66206e6f6e60008201527f6578697374656e7420746f6b656e000000000000000000000000000000000000602082015250565b7f4552433732313a206d696e7420746f20746865207a65726f2061646472657373600082015250565b7f45524337323155524953746f726167653a2055524920717565727920666f722060008201527f6e6f6e6578697374656e7420746f6b656e000000000000000000000000000000602082015250565b7f4552433732313a20617070726f76656420717565727920666f72206e6f6e657860008201527f697374656e7420746f6b656e0000000000000000000000000000000000000000602082015250565b7f4552433732313a207472616e73666572206f6620746f6b656e2074686174206960008201527f73206e6f74206f776e0000000000000000000000000000000000000000000000602082015250565b7f4552433732314d657461646174613a2055524920717565727920666f72206e6f60008201527f6e6578697374656e7420746f6b656e0000000000000000000000000000000000602082015250565b7f4552433732313a20617070726f76616c20746f2063757272656e74206f776e6560008201527f7200000000000000000000000000000000000000000000000000000000000000602082015250565b7f4552433732313a207472616e736665722063616c6c6572206973206e6f74206f60008201527f776e6572206e6f7220617070726f766564000000000000000000000000000000602082015250565b612b0881612421565b8114612b1357600080fd5b50565b612b1f81612433565b8114612b2a57600080fd5b50565b612b368161243f565b8114612b4157600080fd5b50565b612b4d8161248b565b8114612b5857600080fd5b5056fea2646970667358221220a9175bb19935cf78d9c8d5730ab9e9f036fb0f9cacab1f7542aea2f89d3b4a2764736f6c63430008030033",
  "linkReferences": {},
  "deployedLinkReferences": {}
}